{
    "contractName": "SupplyChain",
    "abi": [
        {
            "anonymous": false,
            "inputs": [
                {
                    "indexed": false,
                    "internalType": "uint32",
                    "name": "productId",
                    "type": "uint32"
                }
            ],
            "name": "TransferOwnership",
            "type": "event"
        },
        {
            "inputs": [
                {
                    "internalType": "string",
                    "name": "_name",
                    "type": "string"
                },
                {
                    "internalType": "string",
                    "name": "_pass",
                    "type": "string"
                },
                {
                    "internalType": "address",
                    "name": "_pAdd",
                    "type": "address"
                },
                {
                    "internalType": "string",
                    "name": "_pType",
                    "type": "string"
                }
            ],
            "name": "addParticipant",
            "outputs": [
                {
                    "internalType": "uint32",
                    "name": "",
                    "type": "uint32"
                }
            ],
            "stateMutability": "nonpayable",
            "type": "function"
        },
        {
            "inputs": [
                {
                    "internalType": "uint32",
                    "name": "_ownerId",
                    "type": "uint32"
                },
                {
                    "internalType": "string",
                    "name": "_modelNumber",
                    "type": "string"
                },
                {
                    "internalType": "string",
                    "name": "_partNumber",
                    "type": "string"
                },
                {
                    "internalType": "string",
                    "name": "_serialNumber",
                    "type": "string"
                },
                {
                    "internalType": "uint32",
                    "name": "_productCost",
                    "type": "uint32"
                }
            ],
            "name": "addProduct",
            "outputs": [
                {
                    "internalType": "uint32",
                    "name": "",
                    "type": "uint32"
                }
            ],
            "stateMutability": "nonpayable",
            "type": "function"
        },
        {
            "inputs": [
                {
                    "internalType": "uint32",
                    "name": "_uid",
                    "type": "uint32"
                },
                {
                    "internalType": "string",
                    "name": "_uname",
                    "type": "string"
                },
                {
                    "internalType": "string",
                    "name": "_pass",
                    "type": "string"
                },
                {
                    "internalType": "string",
                    "name": "_utype",
                    "type": "string"
                }
            ],
            "name": "authenticateParticipant",
            "outputs": [
                {
                    "internalType": "bool",
                    "name": "",
                    "type": "bool"
                }
            ],
            "stateMutability": "view",
            "type": "function"
        },
        {
            "inputs": [
                {
                    "internalType": "uint32",
                    "name": "_regId",
                    "type": "uint32"
                }
            ],
            "name": "getOwnership",
            "outputs": [
                {
                    "internalType": "uint32",
                    "name": "",
                    "type": "uint32"
                },
                {
                    "internalType": "uint32",
                    "name": "",
                    "type": "uint32"
                },
                {
                    "internalType": "address",
                    "name": "",
                    "type": "address"
                },
                {
                    "internalType": "uint32",
                    "name": "",
                    "type": "uint32"
                }
            ],
            "stateMutability": "view",
            "type": "function"
        },
        {
            "inputs": [
                {
                    "internalType": "uint32",
                    "name": "_product_id",
                    "type": "uint32"
                }
            ],
            "name": "getParticipant",
            "outputs": [
                {
                    "internalType": "string",
                    "name": "",
                    "type": "string"
                },
                {
                    "internalType": "address",
                    "name": "",
                    "type": "address"
                },
                {
                    "internalType": "string",
                    "name": "",
                    "type": "string"
                }
            ],
            "stateMutability": "view",
            "type": "function"
        },
        {
            "inputs": [
                {
                    "internalType": "uint32",
                    "name": "_productId",
                    "type": "uint32"
                }
            ],
            "name": "getProduct",
            "outputs": [
                {
                    "internalType": "string",
                    "name": "",
                    "type": "string"
                },
                {
                    "internalType": "string",
                    "name": "",
                    "type": "string"
                },
                {
                    "internalType": "string",
                    "name": "",
                    "type": "string"
                },
                {
                    "internalType": "uint32",
                    "name": "",
                    "type": "uint32"
                },
                {
                    "internalType": "address",
                    "name": "",
                    "type": "address"
                },
                {
                    "internalType": "uint32",
                    "name": "",
                    "type": "uint32"
                }
            ],
            "stateMutability": "view",
            "type": "function"
        },
        {
            "inputs": [
                {
                    "internalType": "uint32",
                    "name": "_prodId",
                    "type": "uint32"
                }
            ],
            "name": "getProvenance",
            "outputs": [
                {
                    "internalType": "uint32[]",
                    "name": "",
                    "type": "uint32[]"
                }
            ],
            "stateMutability": "view",
            "type": "function"
        },
        {
            "inputs": [
                {
                    "internalType": "uint32",
                    "name": "_user1Id",
                    "type": "uint32"
                },
                {
                    "internalType": "uint32",
                    "name": "_user2Id",
                    "type": "uint32"
                },
                {
                    "internalType": "uint32",
                    "name": "_prodId",
                    "type": "uint32"
                }
            ],
            "name": "newOwner",
            "outputs": [
                {
                    "internalType": "bool",
                    "name": "",
                    "type": "bool"
                }
            ],
            "stateMutability": "nonpayable",
            "type": "function"
        },
        {
            "inputs": [],
            "name": "owner_id",
            "outputs": [
                {
                    "internalType": "uint32",
                    "name": "",
                    "type": "uint32"
                }
            ],
            "stateMutability": "view",
            "type": "function"
        },
        {
            "inputs": [
                {
                    "internalType": "uint32",
                    "name": "",
                    "type": "uint32"
                }
            ],
            "name": "ownerships",
            "outputs": [
                {
                    "internalType": "uint32",
                    "name": "productId",
                    "type": "uint32"
                },
                {
                    "internalType": "uint32",
                    "name": "ownerId",
                    "type": "uint32"
                },
                {
                    "internalType": "uint32",
                    "name": "trxTimeStamp",
                    "type": "uint32"
                },
                {
                    "internalType": "address",
                    "name": "productOwner",
                    "type": "address"
                }
            ],
            "stateMutability": "view",
            "type": "function"
        },
        {
            "inputs": [],
            "name": "participant_id",
            "outputs": [
                {
                    "internalType": "uint32",
                    "name": "",
                    "type": "uint32"
                }
            ],
            "stateMutability": "view",
            "type": "function"
        },
        {
            "inputs": [
                {
                    "internalType": "uint32",
                    "name": "",
                    "type": "uint32"
                }
            ],
            "name": "participants",
            "outputs": [
                {
                    "internalType": "string",
                    "name": "userName",
                    "type": "string"
                },
                {
                    "internalType": "string",
                    "name": "password",
                    "type": "string"
                },
                {
                    "internalType": "string",
                    "name": "participantType",
                    "type": "string"
                },
                {
                    "internalType": "address",
                    "name": "participantAddress",
                    "type": "address"
                }
            ],
            "stateMutability": "view",
            "type": "function"
        },
        {
            "inputs": [
                {
                    "internalType": "uint32",
                    "name": "",
                    "type": "uint32"
                },
                {
                    "internalType": "uint256",
                    "name": "",
                    "type": "uint256"
                }
            ],
            "name": "productTrack",
            "outputs": [
                {
                    "internalType": "uint32",
                    "name": "",
                    "type": "uint32"
                }
            ],
            "stateMutability": "view",
            "type": "function"
        },
        {
            "inputs": [],
            "name": "product_id",
            "outputs": [
                {
                    "internalType": "uint32",
                    "name": "",
                    "type": "uint32"
                }
            ],
            "stateMutability": "view",
            "type": "function"
        },
        {
            "inputs": [
                {
                    "internalType": "uint32",
                    "name": "",
                    "type": "uint32"
                }
            ],
            "name": "products",
            "outputs": [
                {
                    "internalType": "string",
                    "name": "modelNumber",
                    "type": "string"
                },
                {
                    "internalType": "string",
                    "name": "partNumber",
                    "type": "string"
                },
                {
                    "internalType": "string",
                    "name": "serialNumber",
                    "type": "string"
                },
                {
                    "internalType": "address",
                    "name": "productOwner",
                    "type": "address"
                },
                {
                    "internalType": "uint32",
                    "name": "cost",
                    "type": "uint32"
                },
                {
                    "internalType": "uint32",
                    "name": "mfgTimeStamp",
                    "type": "uint32"
                }
            ],
            "stateMutability": "view",
            "type": "function"
        }
    ],
    "bytecode": "6080604052600080546001600160601b031916905534801561002057600080fd5b506122ee806100306000396000f3fe608060405234801561001057600080fd5b50600436106100f55760003560e01c80638f5ebf7111610097578063df6d23f111610066578063df6d23f1146102b9578063eab0a4791461036a578063ebf43a7e1461037a578063fc2da9101461038d57600080fd5b80638f5ebf7114610238578063a638ac491461024f578063bf712fd614610274578063c85695651461029957600080fd5b806350632104116100d3578063506321041461016c578063721b57431461017f5780637d0a9ac91461019257806381e15610146101b557600080fd5b80631a074802146100fa5780632e9d5284146101275780633b26a65d1461014a575b600080fd5b61010d610108366004611c64565b6103a5565b60405163ffffffff90911681526020015b60405180910390f35b61013a610135366004611c8e565b6103ee565b604051901515815260200161011e565b61015d610158366004611cd1565b611027565b60405161011e93929190611d4f565b61010d61017a366004611e30565b61117e565b61013a61018d366004611eda565b611331565b6101a56101a0366004611cd1565b611480565b60405161011e9493929190611f73565b6102026101c3366004611cd1565b60036020526000908152604090205463ffffffff808216916401000000008104821691600160401b82041690600160601b90046001600160a01b031684565b6040805163ffffffff9586168152938516602085015291909316908201526001600160a01b03909116606082015260800161011e565b60005461010d90600160401b900463ffffffff1681565b61026261025d366004611cd1565b611649565b60405161011e96959493929190611fc6565b610287610282366004611cd1565b611857565b60405161011e96959493929190612031565b6102ac6102a7366004611cd1565b611a39565b60405161011e9190612099565b6103316102c7366004611cd1565b63ffffffff8082166000908152600360209081526040918290208251608081018452905480851680835264010000000082048616938301849052600160401b82049095169382018490526001600160a01b03600160601b9091041660609091018190529093509193565b6040805163ffffffff958616815293851660208501526001600160a01b039092169183019190915291909116606082015260800161011e565b60005461010d9063ffffffff1681565b61010d6103883660046120e3565b611ace565b60005461010d90640100000000900463ffffffff1681565b600460205281600052604060002081815481106103c157600080fd5b9060005260206000209060089182820401919006600402915091509054906101000a900463ffffffff1681565b63ffffffff811660009081526001602052604081206003015482906001600160a01b0316331461043e5760405162461bcd60e51b8152602060048201526000602482015260440160405180910390fd5b63ffffffff851660009081526002602052604080822081516080810190925280548290829061046c90612173565b80601f016020809104026020016040519081016040528092919081815260200182805461049890612173565b80156104e55780601f106104ba576101008083540402835291602001916104e5565b820191906000526020600020905b8154815290600101906020018083116104c857829003601f168201915b505050505081526020016001820180546104fe90612173565b80601f016020809104026020016040519081016040528092919081815260200182805461052a90612173565b80156105775780601f1061054c57610100808354040283529160200191610577565b820191906000526020600020905b81548152906001019060200180831161055a57829003601f168201915b5050505050815260200160028201805461059090612173565b80601f01602080910402602001604051908101604052809291908181526020018280546105bc90612173565b80156106095780601f106105de57610100808354040283529160200191610609565b820191906000526020600020905b8154815290600101906020018083116105ec57829003601f168201915b5050509183525050600391909101546001600160a01b031660209182015263ffffffff8716600090815260029091526040808220815160808101909252805493945091929091908290829061065d90612173565b80601f016020809104026020016040519081016040528092919081815260200182805461068990612173565b80156106d65780601f106106ab576101008083540402835291602001916106d6565b820191906000526020600020905b8154815290600101906020018083116106b957829003601f168201915b505050505081526020016001820180546106ef90612173565b80601f016020809104026020016040519081016040528092919081815260200182805461071b90612173565b80156107685780601f1061073d57610100808354040283529160200191610768565b820191906000526020600020905b81548152906001019060200180831161074b57829003601f168201915b5050505050815260200160028201805461078190612173565b80601f01602080910402602001604051908101604052809291908181526020018280546107ad90612173565b80156107fa5780601f106107cf576101008083540402835291602001916107fa565b820191906000526020600020905b8154815290600101906020018083116107dd57829003601f168201915b5050509183525050600391909101546001600160a01b03166020909101526000805491925090600160401b900463ffffffff16816008610839836121ae565b91906101000a81548163ffffffff021916908363ffffffff16021790555090507fcec9b8e63c868f2f7f30368f1583e7aa39ae80e163d57a859fa5a90244b28ac1836040015160405160200161088f91906121e0565b604051602081830303815290604052805190602001201480156108e9575060008051602061229983398151915282604001516040516020016108d191906121e0565b60405160208183030381529060405280519060200120145b15610b015785600360008363ffffffff1663ffffffff16815260200190815260200160002060000160006101000a81548163ffffffff021916908363ffffffff1602179055508160600151600360008363ffffffff1663ffffffff168152602001908152602001600020600001600c6101000a8154816001600160a01b0302191690836001600160a01b0316021790555086600360008363ffffffff1663ffffffff16815260200190815260200160002060000160046101000a81548163ffffffff021916908363ffffffff16021790555042600360008363ffffffff1663ffffffff16815260200190815260200160002060000160086101000a81548163ffffffff021916908363ffffffff1602179055508160600151600160008863ffffffff1663ffffffff16815260200190815260200160002060030160006101000a8154816001600160a01b0302191690836001600160a01b03160217905550600460008763ffffffff1663ffffffff1681526020019081526020016000208190806001815401808255809150506001900390600052602060002090600891828204019190066004029091909190916101000a81548163ffffffff021916908363ffffffff1602179055507fa5470ac012c6e9dc500e62b1d3de0de58db49b3ab7cfebbfb126d9abd854199b86604051610aed919063ffffffff91909116815260200190565b60405180910390a16001945050505061101f565b6000805160206122998339815191528360400151604051602001610b2591906121e0565b60405160208183030381529060405280519060200120148015610b7f57506000805160206122998339815191528260400151604051602001610b6791906121e0565b60405160208183030381529060405280519060200120145b15610d835785600360008363ffffffff1663ffffffff16815260200190815260200160002060000160006101000a81548163ffffffff021916908363ffffffff1602179055508160600151600360008363ffffffff1663ffffffff168152602001908152602001600020600001600c6101000a8154816001600160a01b0302191690836001600160a01b0316021790555086600360008363ffffffff1663ffffffff16815260200190815260200160002060000160046101000a81548163ffffffff021916908363ffffffff16021790555042600360008363ffffffff1663ffffffff16815260200190815260200160002060000160086101000a81548163ffffffff021916908363ffffffff1602179055508160600151600160008863ffffffff1663ffffffff16815260200190815260200160002060030160006101000a8154816001600160a01b0302191690836001600160a01b03160217905550600460008763ffffffff1663ffffffff1681526020019081526020016000208190806001815401808255809150506001900390600052602060002090600891828204019190066004029091909190916101000a81548163ffffffff021916908363ffffffff1602179055507fa5470ac012c6e9dc500e62b1d3de0de58db49b3ab7cfebbfb126d9abd854199b86604051610aed919063ffffffff91909116815260200190565b6000805160206122998339815191528360400151604051602001610da791906121e0565b60405160208183030381529060405280519060200120148015610e1357507fc0878b4b16a78e8085cba0ca02fc0924f1492924058d153153a3f286e0fd70ff8260400151604051602001610dfb91906121e0565b60405160208183030381529060405280519060200120145b156110175785600360008363ffffffff1663ffffffff16815260200190815260200160002060000160006101000a81548163ffffffff021916908363ffffffff1602179055508160600151600360008363ffffffff1663ffffffff168152602001908152602001600020600001600c6101000a8154816001600160a01b0302191690836001600160a01b0316021790555086600360008363ffffffff1663ffffffff16815260200190815260200160002060000160046101000a81548163ffffffff021916908363ffffffff16021790555042600360008363ffffffff1663ffffffff16815260200190815260200160002060000160086101000a81548163ffffffff021916908363ffffffff1602179055508160600151600160008863ffffffff1663ffffffff16815260200190815260200160002060030160006101000a8154816001600160a01b0302191690836001600160a01b03160217905550600460008763ffffffff1663ffffffff1681526020019081526020016000208190806001815401808255809150506001900390600052602060002090600891828204019190066004029091909190916101000a81548163ffffffff021916908363ffffffff1602179055507fa5470ac012c6e9dc500e62b1d3de0de58db49b3ab7cfebbfb126d9abd854199b86604051610aed919063ffffffff91909116815260200190565b600094505050505b509392505050565b63ffffffff81166000908152600260208190526040822060038101548154606094938593926001600160a01b03169190830190839061106590612173565b80601f016020809104026020016040519081016040528092919081815260200182805461109190612173565b80156110de5780601f106110b3576101008083540402835291602001916110de565b820191906000526020600020905b8154815290600101906020018083116110c157829003601f168201915b505050505092508080546110f190612173565b80601f016020809104026020016040519081016040528092919081815260200182805461111d90612173565b801561116a5780601f1061113f5761010080835404028352916020019161116a565b820191906000526020600020905b81548152906001019060200180831161114d57829003601f168201915b505050505090509250925092509193909250565b63ffffffff8516600090815260026020818152604080842090517fcec9b8e63c868f2f7f30368f1583e7aa39ae80e163d57a859fa5a90244b28ac1936111c793920191016121fc565b60405160208183030381529060405280519060200120146111e757600080fd5b6000805463ffffffff1681806111fc836121ae565b82546101009290920a63ffffffff81810219909316918316021790915581166000908152600160209081526040909120885192935061123f929091890190611bb2565b5063ffffffff81166000908152600160208181526040909220875161126c93919092019190880190611bb2565b5063ffffffff81166000908152600160209081526040909120855161129992600290920191870190611bb2565b5063ffffffff8082166000818152600160208181526040808420600390810180549a8816600160a01b0263ffffffff60a01b198c16811782559e88168652600284529185200154949093525242909216600160c01b02600167ffffffff0000000160a01b03199099166001600160e01b0319909516949094176001600160a01b03909416939093179690961790915550929392505050565b60008160405160200161134491906121e0565b60408051601f19818403018152828252805160209182012063ffffffff8916600090815260028084529390209093611381939190910191016121fc565b60405160208183030381529060405280519060200120141561147457836040516020016113ae91906121e0565b60408051601f19818403018152828252805160209182012063ffffffff89166000908152600283529290922091926113e79291016121fc565b604051602081830303815290604052805190602001201415611474578260405160200161141491906121e0565b60408051601f19818403018152828252805160209182012063ffffffff89166000908152600283529290922091926114509260010191016121fc565b60405160208183030381529060405280519060200120141561147457506001611478565b5060005b949350505050565b60026020526000908152604090208054819061149b90612173565b80601f01602080910402602001604051908101604052809291908181526020018280546114c790612173565b80156115145780601f106114e957610100808354040283529160200191611514565b820191906000526020600020905b8154815290600101906020018083116114f757829003601f168201915b50505050509080600101805461152990612173565b80601f016020809104026020016040519081016040528092919081815260200182805461155590612173565b80156115a25780601f10611577576101008083540402835291602001916115a2565b820191906000526020600020905b81548152906001019060200180831161158557829003601f168201915b5050505050908060020180546115b790612173565b80601f01602080910402602001604051908101604052809291908181526020018280546115e390612173565b80156116305780601f1061160557610100808354040283529160200191611630565b820191906000526020600020905b81548152906001019060200180831161161357829003601f168201915b505050600390930154919250506001600160a01b031684565b63ffffffff8082166000908152600160208190526040822060038101548154606095869586959094859485949193928401926002850192600160a01b83048216926001600160a01b03811692600160c01b909104169086906116aa90612173565b80601f01602080910402602001604051908101604052809291908181526020018280546116d690612173565b80156117235780601f106116f857610100808354040283529160200191611723565b820191906000526020600020905b81548152906001019060200180831161170657829003601f168201915b5050505050955084805461173690612173565b80601f016020809104026020016040519081016040528092919081815260200182805461176290612173565b80156117af5780601f10611784576101008083540402835291602001916117af565b820191906000526020600020905b81548152906001019060200180831161179257829003601f168201915b505050505094508380546117c290612173565b80601f01602080910402602001604051908101604052809291908181526020018280546117ee90612173565b801561183b5780601f106118105761010080835404028352916020019161183b565b820191906000526020600020905b81548152906001019060200180831161181e57829003601f168201915b5050505050935095509550955095509550955091939550919395565b60016020526000908152604090208054819061187290612173565b80601f016020809104026020016040519081016040528092919081815260200182805461189e90612173565b80156118eb5780601f106118c0576101008083540402835291602001916118eb565b820191906000526020600020905b8154815290600101906020018083116118ce57829003601f168201915b50505050509080600101805461190090612173565b80601f016020809104026020016040519081016040528092919081815260200182805461192c90612173565b80156119795780601f1061194e57610100808354040283529160200191611979565b820191906000526020600020905b81548152906001019060200180831161195c57829003601f168201915b50505050509080600201805461198e90612173565b80601f01602080910402602001604051908101604052809291908181526020018280546119ba90612173565b8015611a075780601f106119dc57610100808354040283529160200191611a07565b820191906000526020600020905b8154815290600101906020018083116119ea57829003601f168201915b505050600390930154919250506001600160a01b0381169063ffffffff600160a01b8204811691600160c01b90041686565b63ffffffff8116600090815260046020908152604091829020805483518184028101840190945280845260609392830182828015611ac257602002820191906000526020600020906000905b82829054906101000a900463ffffffff1663ffffffff1681526020019060040190602082600301049283019260010382029150808411611a855790505b50505050509050919050565b600080548190640100000000900463ffffffff16816004611aee836121ae565b82546101009290920a63ffffffff818102199093169183160217909155811660009081526002602090815260409091208851929350611b31929091890190611bb2565b5063ffffffff811660009081526002602090815260409091208651611b5e92600190920191880190611bb2565b5063ffffffff811660009081526002602081815260409092206003810180546001600160a01b0319166001600160a01b0389161790558551611ba893919092019190860190611bb2565b5095945050505050565b828054611bbe90612173565b90600052602060002090601f016020900481019282611be05760008555611c26565b82601f10611bf957805160ff1916838001178555611c26565b82800160010185558215611c26579182015b82811115611c26578251825591602001919060010190611c0b565b50611c32929150611c36565b5090565b5b80821115611c325760008155600101611c37565b803563ffffffff81168114611c5f57600080fd5b919050565b60008060408385031215611c7757600080fd5b611c8083611c4b565b946020939093013593505050565b600080600060608486031215611ca357600080fd5b611cac84611c4b565b9250611cba60208501611c4b565b9150611cc860408501611c4b565b90509250925092565b600060208284031215611ce357600080fd5b611cec82611c4b565b9392505050565b60005b83811015611d0e578181015183820152602001611cf6565b83811115611d1d576000848401525b50505050565b60008151808452611d3b816020860160208601611cf3565b601f01601f19169290920160200192915050565b606081526000611d626060830186611d23565b6001600160a01b03851660208401528281036040840152611d838185611d23565b9695505050505050565b634e487b7160e01b600052604160045260246000fd5b600082601f830112611db457600080fd5b813567ffffffffffffffff80821115611dcf57611dcf611d8d565b604051601f8301601f19908116603f01168101908282118183101715611df757611df7611d8d565b81604052838152866020858801011115611e1057600080fd5b836020870160208301376000602085830101528094505050505092915050565b600080600080600060a08688031215611e4857600080fd5b611e5186611c4b565b9450602086013567ffffffffffffffff80821115611e6e57600080fd5b611e7a89838a01611da3565b95506040880135915080821115611e9057600080fd5b611e9c89838a01611da3565b94506060880135915080821115611eb257600080fd5b50611ebf88828901611da3565b925050611ece60808701611c4b565b90509295509295909350565b60008060008060808587031215611ef057600080fd5b611ef985611c4b565b9350602085013567ffffffffffffffff80821115611f1657600080fd5b611f2288838901611da3565b94506040870135915080821115611f3857600080fd5b611f4488838901611da3565b93506060870135915080821115611f5a57600080fd5b50611f6787828801611da3565b91505092959194509250565b608081526000611f866080830187611d23565b8281036020840152611f988187611d23565b90508281036040840152611fac8186611d23565b91505060018060a01b038316606083015295945050505050565b60c081526000611fd960c0830189611d23565b8281036020840152611feb8189611d23565b90508281036040840152611fff8188611d23565b63ffffffff96871660608501526001600160a01b039590951660808401525050921660a0909201919091529392505050565b60c08152600061204460c0830189611d23565b82810360208401526120568189611d23565b9050828103604084015261206a8188611d23565b6001600160a01b03969096166060840152505063ffffffff9283166080820152911660a0909101529392505050565b6020808252825182820181905260009190848201906040850190845b818110156120d757835163ffffffff16835292840192918401916001016120b5565b50909695505050505050565b600080600080608085870312156120f957600080fd5b843567ffffffffffffffff8082111561211157600080fd5b61211d88838901611da3565b9550602087013591508082111561213357600080fd5b61213f88838901611da3565b9450604087013591506001600160a01b038216821461215d57600080fd5b90925060608601359080821115611f5a57600080fd5b600181811c9082168061218757607f821691505b602082108114156121a857634e487b7160e01b600052602260045260246000fd5b50919050565b600063ffffffff808316818114156121d657634e487b7160e01b600052601160045260246000fd5b6001019392505050565b600082516121f2818460208701611cf3565b9190910192915050565b600080835481600182811c91508083168061221857607f831692505b602080841082141561223857634e487b7160e01b86526022600452602486fd5b81801561224c576001811461225d5761228a565b60ff1986168952848901965061228a565b60008a81526020902060005b868110156122825781548b820152908501908301612269565b505084890196505b50949897505050505050505056feb77c7d6bf62fa24fc205955093030c58325cd2d3d35fb486ede7594fb99635f5a2646970667358221220e67a1391b4158522796c03d9375edf9e0a9ed8672b0de682262a2cb33d6ac99c64736f6c634300080a0033",
    "sourcePath": "c:/Users/luke-/OneDrive/Desktop/Computer Science/Ethereum Development/workspace/SupplyChainApp/contracts/SupplyChain.sol",
    "compiler": {
        "name": "solc",
        "version": "0.8.10+commit.fc410830"
    },
    "functionHashes": {
        "addParticipant(string,string,address,string)": "ebf43a7e",
        "addProduct(uint32,string,string,string,uint32)": "50632104",
        "authenticateParticipant(uint32,string,string,string)": "721b5743",
        "getOwnership(uint32)": "df6d23f1",
        "getParticipant(uint32)": "3b26a65d",
        "getProduct(uint32)": "a638ac49",
        "getProvenance(uint32)": "c8569565",
        "newOwner(uint32,uint32,uint32)": "2e9d5284",
        "owner_id()": "8f5ebf71",
        "ownerships(uint32)": "81e15610",
        "participant_id()": "fc2da910",
        "participants(uint32)": "7d0a9ac9",
        "productTrack(uint32,uint256)": "1a074802",
        "product_id()": "eab0a479",
        "products(uint32)": "bf712fd6"
    },
    "gasEstimates": {
        "creation": {
            "codeDepositCost": "1788400",
            "executionCost": "26114",
            "totalCost": "1814514"
        },
        "external": {
            "addParticipant(string,string,address,string)": "infinite",
            "addProduct(uint32,string,string,string,uint32)": "infinite",
            "authenticateParticipant(uint32,string,string,string)": "infinite",
            "getOwnership(uint32)": "2867",
            "getParticipant(uint32)": "infinite",
            "getProduct(uint32)": "infinite",
            "getProvenance(uint32)": "infinite",
            "newOwner(uint32,uint32,uint32)": "infinite",
            "owner_id()": "2342",
            "ownerships(uint32)": "2791",
            "participant_id()": "2401",
            "participants(uint32)": "infinite",
            "productTrack(uint32,uint256)": "6421",
            "product_id()": "2346",
            "products(uint32)": "infinite"
        }
    }
}