{
  "contractName": "SupplyChain",
  "abi": [
    {
      "anonymous": false,
      "inputs": [
        {
          "indexed": false,
          "internalType": "uint32",
          "name": "productId",
          "type": "uint32"
        }
      ],
      "name": "TransferOwnership",
      "type": "event"
    },
    {
      "inputs": [],
      "name": "owner_id",
      "outputs": [
        {
          "internalType": "uint32",
          "name": "",
          "type": "uint32"
        }
      ],
      "stateMutability": "view",
      "type": "function",
      "constant": true
    },
    {
      "inputs": [
        {
          "internalType": "uint32",
          "name": "",
          "type": "uint32"
        }
      ],
      "name": "ownerships",
      "outputs": [
        {
          "internalType": "uint32",
          "name": "productId",
          "type": "uint32"
        },
        {
          "internalType": "uint32",
          "name": "ownerId",
          "type": "uint32"
        },
        {
          "internalType": "uint32",
          "name": "trxTimeStamp",
          "type": "uint32"
        },
        {
          "internalType": "address",
          "name": "productOwner",
          "type": "address"
        }
      ],
      "stateMutability": "view",
      "type": "function",
      "constant": true
    },
    {
      "inputs": [],
      "name": "participant_id",
      "outputs": [
        {
          "internalType": "uint32",
          "name": "",
          "type": "uint32"
        }
      ],
      "stateMutability": "view",
      "type": "function",
      "constant": true
    },
    {
      "inputs": [
        {
          "internalType": "uint32",
          "name": "",
          "type": "uint32"
        }
      ],
      "name": "participants",
      "outputs": [
        {
          "internalType": "string",
          "name": "userName",
          "type": "string"
        },
        {
          "internalType": "string",
          "name": "password",
          "type": "string"
        },
        {
          "internalType": "string",
          "name": "participantType",
          "type": "string"
        },
        {
          "internalType": "address",
          "name": "participantAddress",
          "type": "address"
        }
      ],
      "stateMutability": "view",
      "type": "function",
      "constant": true
    },
    {
      "inputs": [
        {
          "internalType": "uint32",
          "name": "",
          "type": "uint32"
        },
        {
          "internalType": "uint256",
          "name": "",
          "type": "uint256"
        }
      ],
      "name": "productTrack",
      "outputs": [
        {
          "internalType": "uint32",
          "name": "",
          "type": "uint32"
        }
      ],
      "stateMutability": "view",
      "type": "function",
      "constant": true
    },
    {
      "inputs": [],
      "name": "product_id",
      "outputs": [
        {
          "internalType": "uint32",
          "name": "",
          "type": "uint32"
        }
      ],
      "stateMutability": "view",
      "type": "function",
      "constant": true
    },
    {
      "inputs": [
        {
          "internalType": "uint32",
          "name": "",
          "type": "uint32"
        }
      ],
      "name": "products",
      "outputs": [
        {
          "internalType": "string",
          "name": "modelNumber",
          "type": "string"
        },
        {
          "internalType": "string",
          "name": "partNumber",
          "type": "string"
        },
        {
          "internalType": "string",
          "name": "serialNumber",
          "type": "string"
        },
        {
          "internalType": "address",
          "name": "productOwner",
          "type": "address"
        },
        {
          "internalType": "uint32",
          "name": "cost",
          "type": "uint32"
        },
        {
          "internalType": "uint32",
          "name": "mfgTimeStamp",
          "type": "uint32"
        }
      ],
      "stateMutability": "view",
      "type": "function",
      "constant": true
    },
    {
      "inputs": [
        {
          "internalType": "string",
          "name": "_name",
          "type": "string"
        },
        {
          "internalType": "string",
          "name": "_pass",
          "type": "string"
        },
        {
          "internalType": "address",
          "name": "_pAdd",
          "type": "address"
        },
        {
          "internalType": "string",
          "name": "_pType",
          "type": "string"
        }
      ],
      "name": "addParticipant",
      "outputs": [
        {
          "internalType": "uint32",
          "name": "",
          "type": "uint32"
        }
      ],
      "stateMutability": "nonpayable",
      "type": "function"
    },
    {
      "inputs": [
        {
          "internalType": "uint32",
          "name": "_product_id",
          "type": "uint32"
        }
      ],
      "name": "getParticipant",
      "outputs": [
        {
          "internalType": "string",
          "name": "",
          "type": "string"
        },
        {
          "internalType": "address",
          "name": "",
          "type": "address"
        },
        {
          "internalType": "string",
          "name": "",
          "type": "string"
        }
      ],
      "stateMutability": "view",
      "type": "function",
      "constant": true
    },
    {
      "inputs": [
        {
          "internalType": "uint32",
          "name": "_ownerId",
          "type": "uint32"
        },
        {
          "internalType": "string",
          "name": "_modelNumber",
          "type": "string"
        },
        {
          "internalType": "string",
          "name": "_partNumber",
          "type": "string"
        },
        {
          "internalType": "string",
          "name": "_serialNumber",
          "type": "string"
        },
        {
          "internalType": "uint32",
          "name": "_productCost",
          "type": "uint32"
        }
      ],
      "name": "addProduct",
      "outputs": [
        {
          "internalType": "uint32",
          "name": "",
          "type": "uint32"
        }
      ],
      "stateMutability": "nonpayable",
      "type": "function"
    },
    {
      "inputs": [
        {
          "internalType": "uint32",
          "name": "_productId",
          "type": "uint32"
        }
      ],
      "name": "getProduct",
      "outputs": [
        {
          "internalType": "string",
          "name": "",
          "type": "string"
        },
        {
          "internalType": "string",
          "name": "",
          "type": "string"
        },
        {
          "internalType": "string",
          "name": "",
          "type": "string"
        },
        {
          "internalType": "uint32",
          "name": "",
          "type": "uint32"
        },
        {
          "internalType": "address",
          "name": "",
          "type": "address"
        },
        {
          "internalType": "uint32",
          "name": "",
          "type": "uint32"
        }
      ],
      "stateMutability": "view",
      "type": "function",
      "constant": true
    },
    {
      "inputs": [
        {
          "internalType": "uint32",
          "name": "_user1Id",
          "type": "uint32"
        },
        {
          "internalType": "uint32",
          "name": "_user2Id",
          "type": "uint32"
        },
        {
          "internalType": "uint32",
          "name": "_prodId",
          "type": "uint32"
        }
      ],
      "name": "newOwner",
      "outputs": [
        {
          "internalType": "bool",
          "name": "",
          "type": "bool"
        }
      ],
      "stateMutability": "nonpayable",
      "type": "function"
    },
    {
      "inputs": [
        {
          "internalType": "uint32",
          "name": "_prodId",
          "type": "uint32"
        }
      ],
      "name": "getProvenance",
      "outputs": [
        {
          "internalType": "uint32[]",
          "name": "",
          "type": "uint32[]"
        }
      ],
      "stateMutability": "view",
      "type": "function",
      "constant": true
    },
    {
      "inputs": [
        {
          "internalType": "uint32",
          "name": "_regId",
          "type": "uint32"
        }
      ],
      "name": "getOwnership",
      "outputs": [
        {
          "internalType": "uint32",
          "name": "",
          "type": "uint32"
        },
        {
          "internalType": "uint32",
          "name": "",
          "type": "uint32"
        },
        {
          "internalType": "address",
          "name": "",
          "type": "address"
        },
        {
          "internalType": "uint32",
          "name": "",
          "type": "uint32"
        }
      ],
      "stateMutability": "view",
      "type": "function",
      "constant": true
    },
    {
      "inputs": [
        {
          "internalType": "uint32",
          "name": "_uid",
          "type": "uint32"
        },
        {
          "internalType": "string",
          "name": "_uname",
          "type": "string"
        },
        {
          "internalType": "string",
          "name": "_pass",
          "type": "string"
        },
        {
          "internalType": "string",
          "name": "_utype",
          "type": "string"
        }
      ],
      "name": "authenticateParticipant",
      "outputs": [
        {
          "internalType": "bool",
          "name": "",
          "type": "bool"
        }
      ],
      "stateMutability": "view",
      "type": "function",
      "constant": true
    }
  ],
  "bytecode": "0x608060405260008060006101000a81548163ffffffff021916908363ffffffff16021790555060008060046101000a81548163ffffffff021916908363ffffffff16021790555060008060086101000a81548163ffffffff021916908363ffffffff16021790555034801561007357600080fd5b50612e69806100836000396000f3fe608060405234801561001057600080fd5b50600436106100f55760003560e01c80638f5ebf7111610097578063df6d23f111610066578063df6d23f11461030a578063eab0a4791461033d578063ebf43a7e1461035b578063fc2da9101461038b576100f5565b80638f5ebf7114610252578063a638ac4914610270578063bf712fd6146102a5578063c8569565146102da576100f5565b806350632104116100d3578063506321041461018c578063721b5743146101bc5780637d0a9ac9146101ec57806381e156101461021f576100f5565b80631a074802146100fa5780632e9d52841461012a5780633b26a65d1461015a575b600080fd5b610114600480360381019061010f919061239d565b6103a9565b60405161012191906123ec565b60405180910390f35b610144600480360381019061013f9190612407565b6103f2565b6040516101519190612475565b60405180910390f35b610174600480360381019061016f9190612490565b611212565b60405161018393929190612597565b60405180910390f35b6101a660048036038101906101a19190612711565b6113c4565b6040516101b391906123ec565b60405180910390f35b6101d660048036038101906101d191906127e0565b611653565b6040516101e39190612475565b60405180910390f35b61020660048036038101906102019190612490565b6117cc565b604051610216949392919061289b565b60405180910390f35b61023960048036038101906102349190612490565b6119b4565b60405161024994939291906128f5565b60405180910390f35b61025a611a34565b60405161026791906123ec565b60405180910390f35b61028a60048036038101906102859190612490565b611a4a565b60405161029c9695949392919061293a565b60405180910390f35b6102bf60048036038101906102ba9190612490565b611d1c565b6040516102d1969594939291906129b0565b60405180910390f35b6102f460048036038101906102ef9190612490565b611f30565b6040516103019190612ae4565b60405180910390f35b610324600480360381019061031f9190612490565b611fd3565b6040516103349493929190612b06565b60405180910390f35b6103456120f3565b60405161035291906123ec565b60405180910390f35b61037560048036038101906103709190612b77565b612107565b60405161038291906123ec565b60405180910390f35b61039361225e565b6040516103a091906123ec565b60405180910390f35b600460205281600052604060002081815481106103c557600080fd5b9060005260206000209060089182820401919006600402915091509054906101000a900463ffffffff1681565b600081600160008263ffffffff1663ffffffff16815260200190815260200160002060030160009054906101000a900473ffffffffffffffffffffffffffffffffffffffff1673ffffffffffffffffffffffffffffffffffffffff163373ffffffffffffffffffffffffffffffffffffffff16146104a5576040517f08c379a000000000000000000000000000000000000000000000000000000000815260040161049c90612c58565b60405180910390fd5b6000600260008763ffffffff1663ffffffff1681526020019081526020016000206040518060800160405290816000820180546104e190612ca7565b80601f016020809104026020016040519081016040528092919081815260200182805461050d90612ca7565b801561055a5780601f1061052f5761010080835404028352916020019161055a565b820191906000526020600020905b81548152906001019060200180831161053d57829003601f168201915b5050505050815260200160018201805461057390612ca7565b80601f016020809104026020016040519081016040528092919081815260200182805461059f90612ca7565b80156105ec5780601f106105c1576101008083540402835291602001916105ec565b820191906000526020600020905b8154815290600101906020018083116105cf57829003601f168201915b5050505050815260200160028201805461060590612ca7565b80601f016020809104026020016040519081016040528092919081815260200182805461063190612ca7565b801561067e5780601f106106535761010080835404028352916020019161067e565b820191906000526020600020905b81548152906001019060200180831161066157829003601f168201915b505050505081526020016003820160009054906101000a900473ffffffffffffffffffffffffffffffffffffffff1673ffffffffffffffffffffffffffffffffffffffff1673ffffffffffffffffffffffffffffffffffffffff168152505090506000600260008763ffffffff1663ffffffff16815260200190815260200160002060405180608001604052908160008201805461071b90612ca7565b80601f016020809104026020016040519081016040528092919081815260200182805461074790612ca7565b80156107945780601f1061076957610100808354040283529160200191610794565b820191906000526020600020905b81548152906001019060200180831161077757829003601f168201915b505050505081526020016001820180546107ad90612ca7565b80601f01602080910402602001604051908101604052809291908181526020018280546107d990612ca7565b80156108265780601f106107fb57610100808354040283529160200191610826565b820191906000526020600020905b81548152906001019060200180831161080957829003601f168201915b5050505050815260200160028201805461083f90612ca7565b80601f016020809104026020016040519081016040528092919081815260200182805461086b90612ca7565b80156108b85780601f1061088d576101008083540402835291602001916108b8565b820191906000526020600020905b81548152906001019060200180831161089b57829003601f168201915b505050505081526020016003820160009054906101000a900473ffffffffffffffffffffffffffffffffffffffff1673ffffffffffffffffffffffffffffffffffffffff1673ffffffffffffffffffffffffffffffffffffffff16815250509050600080600881819054906101000a900463ffffffff168092919061093c90612d08565b91906101000a81548163ffffffff021916908363ffffffff16021790555090507fcec9b8e63c868f2f7f30368f1583e7aa39ae80e163d57a859fa5a90244b28ac183604001516040516020016109929190612d71565b604051602081830303815290604052805190602001201480156109fe57507fb77c7d6bf62fa24fc205955093030c58325cd2d3d35fb486ede7594fb99635f582604001516040516020016109e69190612d71565b60405160208183030381529060405280519060200120145b15610c3e5785600360008363ffffffff1663ffffffff16815260200190815260200160002060000160006101000a81548163ffffffff021916908363ffffffff1602179055508160600151600360008363ffffffff1663ffffffff168152602001908152602001600020600001600c6101000a81548173ffffffffffffffffffffffffffffffffffffffff021916908373ffffffffffffffffffffffffffffffffffffffff16021790555086600360008363ffffffff1663ffffffff16815260200190815260200160002060000160046101000a81548163ffffffff021916908363ffffffff16021790555042600360008363ffffffff1663ffffffff16815260200190815260200160002060000160086101000a81548163ffffffff021916908363ffffffff1602179055508160600151600160008863ffffffff1663ffffffff16815260200190815260200160002060030160006101000a81548173ffffffffffffffffffffffffffffffffffffffff021916908373ffffffffffffffffffffffffffffffffffffffff160217905550600460008763ffffffff1663ffffffff1681526020019081526020016000208190806001815401808255809150506001900390600052602060002090600891828204019190066004029091909190916101000a81548163ffffffff021916908363ffffffff1602179055507fa5470ac012c6e9dc500e62b1d3de0de58db49b3ab7cfebbfb126d9abd854199b86604051610c2a91906123ec565b60405180910390a16001945050505061120a565b7fb77c7d6bf62fa24fc205955093030c58325cd2d3d35fb486ede7594fb99635f58360400151604051602001610c749190612d71565b60405160208183030381529060405280519060200120148015610ce057507fb77c7d6bf62fa24fc205955093030c58325cd2d3d35fb486ede7594fb99635f58260400151604051602001610cc89190612d71565b60405160208183030381529060405280519060200120145b15610f205785600360008363ffffffff1663ffffffff16815260200190815260200160002060000160006101000a81548163ffffffff021916908363ffffffff1602179055508160600151600360008363ffffffff1663ffffffff168152602001908152602001600020600001600c6101000a81548173ffffffffffffffffffffffffffffffffffffffff021916908373ffffffffffffffffffffffffffffffffffffffff16021790555086600360008363ffffffff1663ffffffff16815260200190815260200160002060000160046101000a81548163ffffffff021916908363ffffffff16021790555042600360008363ffffffff1663ffffffff16815260200190815260200160002060000160086101000a81548163ffffffff021916908363ffffffff1602179055508160600151600160008863ffffffff1663ffffffff16815260200190815260200160002060030160006101000a81548173ffffffffffffffffffffffffffffffffffffffff021916908373ffffffffffffffffffffffffffffffffffffffff160217905550600460008763ffffffff1663ffffffff1681526020019081526020016000208190806001815401808255809150506001900390600052602060002090600891828204019190066004029091909190916101000a81548163ffffffff021916908363ffffffff1602179055507fa5470ac012c6e9dc500e62b1d3de0de58db49b3ab7cfebbfb126d9abd854199b86604051610f0c91906123ec565b60405180910390a16001945050505061120a565b7fb77c7d6bf62fa24fc205955093030c58325cd2d3d35fb486ede7594fb99635f58360400151604051602001610f569190612d71565b60405160208183030381529060405280519060200120148015610fc257507fc0878b4b16a78e8085cba0ca02fc0924f1492924058d153153a3f286e0fd70ff8260400151604051602001610faa9190612d71565b60405160208183030381529060405280519060200120145b156112025785600360008363ffffffff1663ffffffff16815260200190815260200160002060000160006101000a81548163ffffffff021916908363ffffffff1602179055508160600151600360008363ffffffff1663ffffffff168152602001908152602001600020600001600c6101000a81548173ffffffffffffffffffffffffffffffffffffffff021916908373ffffffffffffffffffffffffffffffffffffffff16021790555086600360008363ffffffff1663ffffffff16815260200190815260200160002060000160046101000a81548163ffffffff021916908363ffffffff16021790555042600360008363ffffffff1663ffffffff16815260200190815260200160002060000160086101000a81548163ffffffff021916908363ffffffff1602179055508160600151600160008863ffffffff1663ffffffff16815260200190815260200160002060030160006101000a81548173ffffffffffffffffffffffffffffffffffffffff021916908373ffffffffffffffffffffffffffffffffffffffff160217905550600460008763ffffffff1663ffffffff1681526020019081526020016000208190806001815401808255809150506001900390600052602060002090600891828204019190066004029091909190916101000a81548163ffffffff021916908363ffffffff1602179055507fa5470ac012c6e9dc500e62b1d3de0de58db49b3ab7cfebbfb126d9abd854199b866040516111ee91906123ec565b60405180910390a16001945050505061120a565b600094505050505b509392505050565b606060006060600260008563ffffffff1663ffffffff168152602001908152602001600020600001600260008663ffffffff1663ffffffff16815260200190815260200160002060030160009054906101000a900473ffffffffffffffffffffffffffffffffffffffff16600260008763ffffffff1663ffffffff1681526020019081526020016000206002018280546112ab90612ca7565b80601f01602080910402602001604051908101604052809291908181526020018280546112d790612ca7565b80156113245780601f106112f957610100808354040283529160200191611324565b820191906000526020600020905b81548152906001019060200180831161130757829003601f168201915b5050505050925080805461133790612ca7565b80601f016020809104026020016040519081016040528092919081815260200182805461136390612ca7565b80156113b05780601f10611385576101008083540402835291602001916113b0565b820191906000526020600020905b81548152906001019060200180831161139357829003601f168201915b505050505090509250925092509193909250565b60007fcec9b8e63c868f2f7f30368f1583e7aa39ae80e163d57a859fa5a90244b28ac1600260008863ffffffff1663ffffffff1681526020019081526020016000206002016040516020016114199190612e1c565b604051602081830303815290604052805190602001201461143957600080fd5b600080600081819054906101000a900463ffffffff168092919061145c90612d08565b91906101000a81548163ffffffff021916908363ffffffff160217905550905085600160008363ffffffff1663ffffffff16815260200190815260200160002060000190805190602001906114b2929190612274565b5084600160008363ffffffff1663ffffffff16815260200190815260200160002060010190805190602001906114e9929190612274565b5083600160008363ffffffff1663ffffffff1681526020019081526020016000206002019080519060200190611520929190612274565b5082600160008363ffffffff1663ffffffff16815260200190815260200160002060030160146101000a81548163ffffffff021916908363ffffffff160217905550600260008863ffffffff1663ffffffff16815260200190815260200160002060030160009054906101000a900473ffffffffffffffffffffffffffffffffffffffff16600160008363ffffffff1663ffffffff16815260200190815260200160002060030160006101000a81548173ffffffffffffffffffffffffffffffffffffffff021916908373ffffffffffffffffffffffffffffffffffffffff16021790555042600160008363ffffffff1663ffffffff16815260200190815260200160002060030160186101000a81548163ffffffff021916908363ffffffff1602179055508091505095945050505050565b6000816040516020016116669190612d71565b60405160208183030381529060405280519060200120600260008763ffffffff1663ffffffff1681526020019081526020016000206002016040516020016116ae9190612e1c565b6040516020818303038152906040528051906020012014156117bf57836040516020016116db9190612d71565b60405160208183030381529060405280519060200120600260008763ffffffff1663ffffffff1681526020019081526020016000206000016040516020016117239190612e1c565b6040516020818303038152906040528051906020012014156117be57826040516020016117509190612d71565b60405160208183030381529060405280519060200120600260008763ffffffff1663ffffffff1681526020019081526020016000206001016040516020016117989190612e1c565b6040516020818303038152906040528051906020012014156117bd57600190506117c4565b5b5b600090505b949350505050565b60026020528060005260406000206000915090508060000180546117ef90612ca7565b80601f016020809104026020016040519081016040528092919081815260200182805461181b90612ca7565b80156118685780601f1061183d57610100808354040283529160200191611868565b820191906000526020600020905b81548152906001019060200180831161184b57829003601f168201915b50505050509080600101805461187d90612ca7565b80601f01602080910402602001604051908101604052809291908181526020018280546118a990612ca7565b80156118f65780601f106118cb576101008083540402835291602001916118f6565b820191906000526020600020905b8154815290600101906020018083116118d957829003601f168201915b50505050509080600201805461190b90612ca7565b80601f016020809104026020016040519081016040528092919081815260200182805461193790612ca7565b80156119845780601f1061195957610100808354040283529160200191611984565b820191906000526020600020905b81548152906001019060200180831161196757829003601f168201915b5050505050908060030160009054906101000a900473ffffffffffffffffffffffffffffffffffffffff16905084565b60036020528060005260406000206000915090508060000160009054906101000a900463ffffffff16908060000160049054906101000a900463ffffffff16908060000160089054906101000a900463ffffffff169080600001600c9054906101000a900473ffffffffffffffffffffffffffffffffffffffff16905084565b600060089054906101000a900463ffffffff1681565b60608060606000806000600160008863ffffffff1663ffffffff168152602001908152602001600020600001600160008963ffffffff1663ffffffff168152602001908152602001600020600101600160008a63ffffffff1663ffffffff168152602001908152602001600020600201600160008b63ffffffff1663ffffffff16815260200190815260200160002060030160149054906101000a900463ffffffff16600160008c63ffffffff1663ffffffff16815260200190815260200160002060030160009054906101000a900473ffffffffffffffffffffffffffffffffffffffff16600160008d63ffffffff1663ffffffff16815260200190815260200160002060030160189054906101000a900463ffffffff16858054611b6f90612ca7565b80601f0160208091040260200160405190810160405280929190818152602001828054611b9b90612ca7565b8015611be85780601f10611bbd57610100808354040283529160200191611be8565b820191906000526020600020905b815481529060010190602001808311611bcb57829003601f168201915b50505050509550848054611bfb90612ca7565b80601f0160208091040260200160405190810160405280929190818152602001828054611c2790612ca7565b8015611c745780601f10611c4957610100808354040283529160200191611c74565b820191906000526020600020905b815481529060010190602001808311611c5757829003601f168201915b50505050509450838054611c8790612ca7565b80601f0160208091040260200160405190810160405280929190818152602001828054611cb390612ca7565b8015611d005780601f10611cd557610100808354040283529160200191611d00565b820191906000526020600020905b815481529060010190602001808311611ce357829003601f168201915b5050505050935095509550955095509550955091939550919395565b6001602052806000526040600020600091509050806000018054611d3f90612ca7565b80601f0160208091040260200160405190810160405280929190818152602001828054611d6b90612ca7565b8015611db85780601f10611d8d57610100808354040283529160200191611db8565b820191906000526020600020905b815481529060010190602001808311611d9b57829003601f168201915b505050505090806001018054611dcd90612ca7565b80601f0160208091040260200160405190810160405280929190818152602001828054611df990612ca7565b8015611e465780601f10611e1b57610100808354040283529160200191611e46565b820191906000526020600020905b815481529060010190602001808311611e2957829003601f168201915b505050505090806002018054611e5b90612ca7565b80601f0160208091040260200160405190810160405280929190818152602001828054611e8790612ca7565b8015611ed45780601f10611ea957610100808354040283529160200191611ed4565b820191906000526020600020905b815481529060010190602001808311611eb757829003601f168201915b5050505050908060030160009054906101000a900473ffffffffffffffffffffffffffffffffffffffff16908060030160149054906101000a900463ffffffff16908060030160189054906101000a900463ffffffff16905086565b6060600460008363ffffffff1663ffffffff168152602001908152602001600020805480602002602001604051908101604052809291908181526020018280548015611fc757602002820191906000526020600020906000905b82829054906101000a900463ffffffff1663ffffffff1681526020019060040190602082600301049283019260010382029150808411611f8a5790505b50505050509050919050565b6000806000806000600360008763ffffffff1663ffffffff1681526020019081526020016000206040518060800160405290816000820160009054906101000a900463ffffffff1663ffffffff1663ffffffff1681526020016000820160049054906101000a900463ffffffff1663ffffffff1663ffffffff1681526020016000820160089054906101000a900463ffffffff1663ffffffff1663ffffffff16815260200160008201600c9054906101000a900473ffffffffffffffffffffffffffffffffffffffff1673ffffffffffffffffffffffffffffffffffffffff1673ffffffffffffffffffffffffffffffffffffffff1681525050905080600001518160200151826060015183604001519450945094509450509193509193565b60008054906101000a900463ffffffff1681565b6000806000600481819054906101000a900463ffffffff168092919061212c90612d08565b91906101000a81548163ffffffff021916908363ffffffff160217905550905085600260008363ffffffff1663ffffffff1681526020019081526020016000206000019080519060200190612182929190612274565b5084600260008363ffffffff1663ffffffff16815260200190815260200160002060010190805190602001906121b9929190612274565b5083600260008363ffffffff1663ffffffff16815260200190815260200160002060030160006101000a81548173ffffffffffffffffffffffffffffffffffffffff021916908373ffffffffffffffffffffffffffffffffffffffff16021790555082600260008363ffffffff1663ffffffff1681526020019081526020016000206002019080519060200190612251929190612274565b5080915050949350505050565b600060049054906101000a900463ffffffff1681565b82805461228090612ca7565b90600052602060002090601f0160209004810192826122a257600085556122e9565b82601f106122bb57805160ff19168380011785556122e9565b828001600101855582156122e9579182015b828111156122e85782518255916020019190600101906122cd565b5b5090506122f691906122fa565b5090565b5b808211156123135760008160009055506001016122fb565b5090565b6000604051905090565b600080fd5b600080fd5b600063ffffffff82169050919050565b6123448161232b565b811461234f57600080fd5b50565b6000813590506123618161233b565b92915050565b6000819050919050565b61237a81612367565b811461238557600080fd5b50565b60008135905061239781612371565b92915050565b600080604083850312156123b4576123b3612321565b5b60006123c285828601612352565b92505060206123d385828601612388565b9150509250929050565b6123e68161232b565b82525050565b600060208201905061240160008301846123dd565b92915050565b6000806000606084860312156124205761241f612321565b5b600061242e86828701612352565b935050602061243f86828701612352565b925050604061245086828701612352565b9150509250925092565b60008115159050919050565b61246f8161245a565b82525050565b600060208201905061248a6000830184612466565b92915050565b6000602082840312156124a6576124a5612321565b5b60006124b484828501612352565b91505092915050565b600081519050919050565b600082825260208201905092915050565b60005b838110156124f75780820151818401526020810190506124dc565b83811115612506576000848401525b50505050565b6000601f19601f8301169050919050565b6000612528826124bd565b61253281856124c8565b93506125428185602086016124d9565b61254b8161250c565b840191505092915050565b600073ffffffffffffffffffffffffffffffffffffffff82169050919050565b600061258182612556565b9050919050565b61259181612576565b82525050565b600060608201905081810360008301526125b1818661251d565b90506125c06020830185612588565b81810360408301526125d2818461251d565b9050949350505050565b600080fd5b600080fd5b7f4e487b7100000000000000000000000000000000000000000000000000000000600052604160045260246000fd5b61261e8261250c565b810181811067ffffffffffffffff8211171561263d5761263c6125e6565b5b80604052505050565b6000612650612317565b905061265c8282612615565b919050565b600067ffffffffffffffff82111561267c5761267b6125e6565b5b6126858261250c565b9050602081019050919050565b82818337600083830152505050565b60006126b46126af84612661565b612646565b9050828152602081018484840111156126d0576126cf6125e1565b5b6126db848285612692565b509392505050565b600082601f8301126126f8576126f76125dc565b5b81356127088482602086016126a1565b91505092915050565b600080600080600060a0868803121561272d5761272c612321565b5b600061273b88828901612352565b955050602086013567ffffffffffffffff81111561275c5761275b612326565b5b612768888289016126e3565b945050604086013567ffffffffffffffff81111561278957612788612326565b5b612795888289016126e3565b935050606086013567ffffffffffffffff8111156127b6576127b5612326565b5b6127c2888289016126e3565b92505060806127d388828901612352565b9150509295509295909350565b600080600080608085870312156127fa576127f9612321565b5b600061280887828801612352565b945050602085013567ffffffffffffffff81111561282957612828612326565b5b612835878288016126e3565b935050604085013567ffffffffffffffff81111561285657612855612326565b5b612862878288016126e3565b925050606085013567ffffffffffffffff81111561288357612882612326565b5b61288f878288016126e3565b91505092959194509250565b600060808201905081810360008301526128b5818761251d565b905081810360208301526128c9818661251d565b905081810360408301526128dd818561251d565b90506128ec6060830184612588565b95945050505050565b600060808201905061290a60008301876123dd565b61291760208301866123dd565b61292460408301856123dd565b6129316060830184612588565b95945050505050565b600060c0820190508181036000830152612954818961251d565b90508181036020830152612968818861251d565b9050818103604083015261297c818761251d565b905061298b60608301866123dd565b6129986080830185612588565b6129a560a08301846123dd565b979650505050505050565b600060c08201905081810360008301526129ca818961251d565b905081810360208301526129de818861251d565b905081810360408301526129f2818761251d565b9050612a016060830186612588565b612a0e60808301856123dd565b612a1b60a08301846123dd565b979650505050505050565b600081519050919050565b600082825260208201905092915050565b6000819050602082019050919050565b612a5b8161232b565b82525050565b6000612a6d8383612a52565b60208301905092915050565b6000602082019050919050565b6000612a9182612a26565b612a9b8185612a31565b9350612aa683612a42565b8060005b83811015612ad7578151612abe8882612a61565b9750612ac983612a79565b925050600181019050612aaa565b5085935050505092915050565b60006020820190508181036000830152612afe8184612a86565b905092915050565b6000608082019050612b1b60008301876123dd565b612b2860208301866123dd565b612b356040830185612588565b612b4260608301846123dd565b95945050505050565b612b5481612576565b8114612b5f57600080fd5b50565b600081359050612b7181612b4b565b92915050565b60008060008060808587031215612b9157612b90612321565b5b600085013567ffffffffffffffff811115612baf57612bae612326565b5b612bbb878288016126e3565b945050602085013567ffffffffffffffff811115612bdc57612bdb612326565b5b612be8878288016126e3565b9350506040612bf987828801612b62565b925050606085013567ffffffffffffffff811115612c1a57612c19612326565b5b612c26878288016126e3565b91505092959194509250565b50565b6000612c426000836124c8565b9150612c4d82612c32565b600082019050919050565b60006020820190508181036000830152612c7181612c35565b9050919050565b7f4e487b7100000000000000000000000000000000000000000000000000000000600052602260045260246000fd5b60006002820490506001821680612cbf57607f821691505b60208210811415612cd357612cd2612c78565b5b50919050565b7f4e487b7100000000000000000000000000000000000000000000000000000000600052601160045260246000fd5b6000612d138261232b565b915063ffffffff821415612d2a57612d29612cd9565b5b600182019050919050565b600081905092915050565b6000612d4b826124bd565b612d558185612d35565b9350612d658185602086016124d9565b80840191505092915050565b6000612d7d8284612d40565b915081905092915050565b60008190508160005260206000209050919050565b60008154612daa81612ca7565b612db48186612d35565b94506001821660008114612dcf5760018114612de057612e13565b60ff19831686528186019350612e13565b612de985612d88565b60005b83811015612e0b57815481890152600182019150602081019050612dec565b838801955050505b50505092915050565b6000612e288284612d9d565b91508190509291505056fea2646970667358221220e3e4e165604e949829b6faa932e0073b0bb6875e4ab7a75ae41480d125ef4d1064736f6c634300080a0033",
  "immutableReferences": {},
  "source": "// SPDX-License-Identifier: MIT\r\n// Implements Supply chain\r\npragma solidity >=0.4.22 <0.9.0;\r\n\r\ncontract SupplyChain {\r\n    uint32 public product_id = 0; // Product ID.\r\n    uint32 public participant_id = 0; // Participant ID.\r\n    uint32 public owner_id = 0; // Ownership ID.\r\n\r\n    struct product {\r\n        string modelNumber;\r\n        string partNumber;\r\n        string serialNumber;\r\n        address productOwner;\r\n        uint32 cost;\r\n        uint32 mfgTimeStamp;\r\n    }\r\n\r\n    mapping (uint32 => product) public products;\r\n\r\n    struct participant {\r\n        string userName;\r\n        string password;\r\n        string participantType;\r\n        address participantAddress;\r\n    }\r\n    mapping(uint32 => participant) public participants;\r\n\r\n    struct ownership {\r\n        uint32 productId;\r\n        uint32 ownerId;\r\n        uint32 trxTimeStamp;\r\n        address productOwner;\r\n    }\r\n    mapping(uint32 => ownership) public ownerships; // ownerships by ownership ID (owner_id).\r\n    mapping(uint32 => uint32[]) public productTrack; // ownerships by Product ID (product_id) / Movement track for a product.\r\n\r\n    event TransferOwnership(uint32 productId);\r\n\r\n    function addParticipant(string memory _name, string memory _pass, address _pAdd, \r\n        string memory _pType) public returns (uint32) {\r\n        uint32 userId = participant_id++;\r\n        participants[userId].userName = _name;\r\n        participants[userId].password = _pass;\r\n        participants[userId].participantAddress = _pAdd;\r\n        participants[userId].participantType = _pType;\r\n\r\n        return userId;\r\n    }\r\n\r\n    function getParticipant(uint32 _product_id) public view returns (\r\n        string memory, address, string memory) {\r\n        return (participants[_product_id].userName, \r\n            participants[_product_id].participantAddress, \r\n            participants[_product_id].participantType);\r\n    }\r\n\r\n    function addProduct(uint32 _ownerId, string memory _modelNumber, \r\n        string memory _partNumber, string memory _serialNumber, uint32 _productCost) \r\n        public returns (uint32) {\r\n        // Have to compare the hash of the string in solidity to check if manufacturer, cannot compare directly.\r\n        require(keccak256(abi.encodePacked(participants[_ownerId].participantType)) == keccak256(\"Manufacturer\"));\r\n        uint32 productId = product_id++;\r\n\r\n        products[productId].modelNumber = _modelNumber;\r\n        products[productId].partNumber = _partNumber;\r\n        products[productId].serialNumber = _serialNumber;\r\n        products[productId].cost = _productCost;\r\n        products[productId].productOwner = participants[_ownerId].participantAddress;\r\n        products[productId].mfgTimeStamp = uint32(block.timestamp);\r\n\r\n        return productId;\r\n    }\r\n\r\n    modifier onlyOwner(uint32 _productId) {\r\n        require(msg.sender == products[_productId].productOwner,\"\");\r\n        _;\r\n    }\r\n\r\n    function getProduct(uint32 _productId) public view returns (\r\n        string memory, string memory, string memory, uint32, address, uint32) {\r\n        return (products[_productId].modelNumber, \r\n            products[_productId].partNumber, \r\n            products[_productId].serialNumber, \r\n            products[_productId].cost, \r\n            products[_productId].productOwner, \r\n            products[_productId].mfgTimeStamp);\r\n    }\r\n\r\n    function newOwner(uint32 _user1Id, uint32 _user2Id, uint32 _prodId) \r\n        onlyOwner(_prodId) public returns (bool) {\r\n        participant memory p1 = participants[_user1Id];\r\n        participant memory p2 = participants[_user2Id];\r\n        uint32 ownership_id = owner_id++;\r\n\r\n        // Transfer from manufacturer to supplier.\r\n        if (keccak256(abi.encodePacked(p1.participantType)) == keccak256(\"Manufacturer\")\r\n            && keccak256(abi.encodePacked(p2.participantType)) == keccak256(\"Supplier\")) {\r\n            ownerships[ownership_id].productId = _prodId;\r\n            ownerships[ownership_id].productOwner = p2.participantAddress;\r\n            ownerships[ownership_id].ownerId = _user2Id;\r\n            ownerships[ownership_id].trxTimeStamp = uint32(block.timestamp);\r\n            products[_prodId].productOwner = p2.participantAddress;\r\n            productTrack[_prodId].push(ownership_id);\r\n            emit TransferOwnership(_prodId);\r\n\r\n            return (true);\r\n        }\r\n        // Transfer from supplier to supplier.\r\n        else if (keccak256(abi.encodePacked(p1.participantType)) == keccak256(\"Supplier\")\r\n            && keccak256(abi.encodePacked(p2.participantType)) == keccak256(\"Supplier\")) {\r\n            ownerships[ownership_id].productId = _prodId;\r\n            ownerships[ownership_id].productOwner = p2.participantAddress;\r\n            ownerships[ownership_id].ownerId = _user2Id;\r\n            ownerships[ownership_id].trxTimeStamp = uint32(block.timestamp);\r\n            products[_prodId].productOwner = p2.participantAddress;\r\n            productTrack[_prodId].push(ownership_id);\r\n            emit TransferOwnership(_prodId);\r\n\r\n            return (true);\r\n        }\r\n        // Transfer from supplier to consumer.\r\n        else if (keccak256(abi.encodePacked(p1.participantType)) == keccak256(\"Supplier\")\r\n            && keccak256(abi.encodePacked(p2.participantType)) == keccak256(\"Consumer\")) {\r\n            ownerships[ownership_id].productId = _prodId;\r\n            ownerships[ownership_id].productOwner = p2.participantAddress;\r\n            ownerships[ownership_id].ownerId = _user2Id;\r\n            ownerships[ownership_id].trxTimeStamp = uint32(block.timestamp);\r\n            products[_prodId].productOwner = p2.participantAddress;\r\n            productTrack[_prodId].push(ownership_id);\r\n            emit TransferOwnership(_prodId);\r\n\r\n            return (true);\r\n        }\r\n\r\n        return (false);\r\n    }\r\n\r\n    function getProvenance(uint32 _prodId) external view returns (uint32[] memory) {\r\n        return productTrack[_prodId];\r\n    }\r\n\r\n    function getOwnership(uint32 _regId) public view returns (uint32, uint32, address, uint32) {\r\n        ownership memory r = ownerships[_regId];\r\n\r\n        return (r.productId, r.ownerId, r.productOwner, r.trxTimeStamp);\r\n    }\r\n\r\n    function authenticateParticipant(uint32 _uid, string memory _uname, \r\n        string memory _pass, string memory _utype) public view returns (bool) {\r\n        if (keccak256(abi.encodePacked(participants[_uid].participantType)) == keccak256(abi.encodePacked(_utype))) {\r\n            if (keccak256(abi.encodePacked(participants[_uid].userName)) == keccak256(abi.encodePacked(_uname))) {\r\n                if (keccak256(abi.encodePacked(participants[_uid].password)) == keccak256(abi.encodePacked(_pass))) {\r\n                    return (true);\r\n                }\r\n            }\r\n        }\r\n\r\n        return (false);\r\n    }\r\n}",
  "sourcePath": "C:\\Users\\luke-\\OneDrive\\Desktop\\Computer Science\\Ethereum Development\\workspace\\SupplyChainApp\\contracts\\SupplyChain.sol",
  "compiler": {
    "name": "solc",
    "version": "0.8.10+commit.fc410830.Emscripten.clang"
  },
  "schemaVersion": "3.4.3",
  "updatedAt": "2021-12-09T14:12:46.113Z",
  "networkType": "ethereum",
  "devdoc": {
    "kind": "dev",
    "methods": {},
    "version": 1
  },
  "userdoc": {
    "kind": "user",
    "methods": {},
    "version": 1
  }
}